:100000000C945D000C9485000C9485000C94850084
:100010000C9485000C9485000C9485000C9485004C
:100020000C9485000C9485000C9485000C9485003C
:100030000C9485000C9485000C9485000C9485002C
:100040000C9475020C9485000C9443020C941D02D0
:100050000C9485000C9485000C9485000C9485000C
:100060000C9485000C94850000000008000201003B
:100070000003040700000000000000000000000072
:10008000250028002B0000000000240027002A0083
:10009000040404040404040402020202020203032E
:1000A0000303030301020408102040800102040836
:1000B0001020010204081020A60311241FBECFEF58
:1000C000D8E0DEBFCDBF11E0A0E0B1E0E6EBF7E0A5
:1000D00002C005900D92A231B107D9F721E0A2E14B
:1000E000B1E001C01D92A83BB207E1F710E0CDE5F9
:1000F000D0E004C02197FE010E94D303CC35D10784
:10010000C9F70E94BF020C94D9030C940000E7EADF
:10011000F0E02491E3E9F0E08491882399F090E005
:10012000880F991FFC01EA57FF4FA591B491FC017C
:10013000E458FF4F859194918FB7F894EC91E22B9E
:10014000EC938FBF0895EBE6F0E02491E7EAF0E04E
:100150009491E3E9F0E0E491EE23C9F0222339F031
:10016000233001F1A8F4213019F1223029F1F0E017
:10017000EE0FFF1FE458FF4FA591B4912FB7F894ED
:10018000EC91811126C090959E239C932FBF0895DA
:100190002730A9F02830C9F0243049F72091800099
:1001A0002F7D03C0209180002F7720938000DFCF28
:1001B00024B52F7724BDDBCF24B52F7DFBCF209135
:1001C000B0002F772093B000D2CF2091B0002F7DC8
:1001D000F9CF9E2BDACFAF92BF92CF92DF92EF9200
:1001E000FF920F931F93CF93DF936C017B018B01E1
:1001F000040F151FEB015E01AE18BF08C017D10731
:1002000059F06991D601ED91FC910190F081E02DBA
:10021000C6010995892B79F7C501DF91CF911F910F
:100220000F91FF90EF90DF90CF90BF90AF90089527
:10023000FC01538D448D252F30E0842F90E0821BEC
:10024000930B541710F0CF96089501970895FC0171
:10025000918D828D981761F0A28DAE0FBF2FB11DC9
:100260005D968C91928D9F5F9F73928F90E0089521
:100270008FEF9FEF0895FC01918D828D981731F0DB
:10028000828DE80FF11D858D90E008958FEF9FEF2F
:100290000895FC01918D228D892F90E0805C9F4F05
:1002A000821B91098F73992708958BE191E00E9439
:1002B000490121E0892B09F420E0822F089580E094
:1002C00090E0892B29F00E94550181110C940000C7
:1002D0000895FC01A48DA80FB92FB11DA35ABF4FDB
:1002E0002C91848D90E001968F739927848FA68935
:1002F000B7892C93A089B1898C91837080648C9389
:10030000938D848D981306C00288F389E02D808137
:100310008F7D80830895EF92FF920F931F93CF9369
:10032000DF93EC0181E0888F9B8D8C8D98131AC030
:10033000E889F989808185FF15C09FB7F894EE8917
:10034000FF896083E889F989808183708064808374
:100350009FBF81E090E0DF91CF911F910F91FF90BF
:10036000EF900895F62E0B8D10E00F5F1F4F0F7367
:100370001127E02E8C8D8E110CC00FB607FCFACF22
:10038000E889F989808185FFF5CFCE010E94690156
:10039000F1CFEB8DEC0FFD2FF11DE35AFF4FF082F3
:1003A0009FB7F8940B8FEA89FB8980818062CFCF59
:1003B000CF93DF93EC01888D8823B9F0AA89BB899C
:1003C000E889F9898C9185FD03C0808186FD0DC087
:1003D0000FB607FCF7CF8C9185FFF2CF808185FFA8
:1003E000EDCFCE010E946901E9CFDF91CF91089551
:1003F0003FB7F8948091170190911801A0911901CD
:10040000B0911A0126B5A89B05C02F3F19F001969F
:10041000A11DB11D3FBFBA2FA92F982F8827BC015E
:10042000CD01620F711D811D911D42E0660F771F86
:10043000881F991F4A95D1F708951F920F920FB602
:100440000F9211242F933F934F935F936F937F935A
:100450008F939F93AF93BF93EF93FF938BE191E0C3
:100460000E946901FF91EF91BF91AF919F918F9190
:100470007F916F915F914F913F912F910F900FBEA0
:100480000F901F9018951F920F920FB60F92112484
:100490002F938F939F93EF93FF93E0912B01F09114
:1004A0002C018081E0913101F091320182FD1BC06D
:1004B0009081809134018F5F8F7320913501821775
:1004C00041F0E0913401F0E0E55EFE4F958F8093BE
:1004D0003401FF91EF919F918F912F910F900FBE5B
:1004E0000F901F9018958081F4CF1F920F920FB636
:1004F0000F9211242F933F938F939F93AF93BF93AA
:100500008091130190911401A0911501B0911601F1
:100510003091120123E0230F2D3758F50196A11DCC
:10052000B11D209312018093130190931401A093A5
:100530001501B09316018091170190911801A091B7
:100540001901B0911A010196A11DB11D80931701E7
:1005500090931801A0931901B0931A01BF91AF9124
:100560009F918F913F912F910F900FBE0F901F90F1
:10057000189526E8230F0296A11DB11DD2CF7894BD
:1005800084B5826084BD84B5816084BD85B5826098
:1005900085BD85B5816085BD80916E008160809349
:1005A0006E001092810080918100826080938100B2
:1005B00080918100816080938100809180008160C2
:1005C000809380008091B10084608093B10080911D
:1005D000B00081608093B00080917A008460809345
:1005E0007A0080917A00826080937A0080917A000C
:1005F000816080937A0080917A00806880937A008D
:100600001092C1000E94870021E4322E0FEF13E008
:100610003BE6C32E30E0D32E40E0E42E40E0F42E43
:1006200030927C0080917A00806480937A0080917F
:100630007A0086FDFCCF909178008091790089271F
:1006400098278927E801C81BD90BD695C795D69559
:10065000C7950E948700209799F580E00E94A3002B
:100660000E94F8012B013C0184E6882E912CA12CDC
:10067000B12C0E94F8016419750986099709683E32
:10068000734081059105A8F3F1E08F1A9108A10844
:10069000B10828EE420E23E0521E611C711C811429
:1006A0009104A104B10429F7E114F10409F4B8CFCD
:1006B0000E945501882309F4B3CF0E940000B0CFF7
:1006C000CF3FD10511F481E0C9CFF6018491833089
:1006D00019F140F48130B1F08230C9F0C038D10551
:1006E00094F7BBCF873011F1883041F18430B1F7F6
:1006F00080918000806280938000D0938B00C093B3
:100700008A00AECF84B5806884BDC7BDA9CF84B54B
:10071000806284BDC8BDA4CF809180008068809332
:100720008000D0938900C09388009ACF8091B00058
:1007300080688093B000C093B30092CF8091B000E6
:1007400080628093B000C093B4008ACFEBE1F1E007
:100750001382128288EE93E0A0E0B0E08483958358
:10076000A683B78384E091E09183808385EC90E059
:100770009587848784EC90E09787868780EC90E06B
:10078000918B808B81EC90E0938B828B82EC90E05C
:10079000958B848B86EC90E0978B868B118E128ED6
:1007A000138E148E0895EE0FFF1F0590F491E02D27
:0607B0000994F894FFCF4C
:1007B600000000008B01EB001801D8014901270158
:0207C6003B01F5
:00000001FF
